:020000040800F2
:1000000000180020090200080000000000000000A5
:1000100000000000000000000000000000000000E0
:1000200002460346981A13F8011B0029FAD17047BB
:10003000024B1A681206FCD5586070470038014020
:100040000D4B0E4A9B681168DB4323F07F439942B6
:100050002DE910480A4C07D9D4E9000110F1807B42
:1000600041F1000CC4E900BCD4E900BC13604BEAC8
:1000700003006146BDE8108810E000E00818002089
:1000800000180020000000002DE98848524B1A7823
:10009000002A41D101221A70504A136803F040032C
:1000A00043F0120313604E4B4E4A19680A4042F463
:1000B00080321A601A689003FCD54B4A116801F42B
:1000C000803141F480611160116821F07F4121F09D
:1000D0007F0141F4E8111160196821F07C4121F0A1
:1000E000010141F08071196019688901FCD511681E
:1000F00001F0040141F0020111609A696FF07F4143
:1001000042F4804242F03D029A610022374B1A606D
:1001100059609A6005221A60354B1A78EAB90121B4
:10012000197034494B6823F004034B60324B596813
:1001300021F47F615960596841F0B00159605968F4
:1001400041F48061596047F2305103F540539960A2
:100150005A611A6142F20C02DA60DFF8A8801CA72B
:10016000D7E9006745462548FFF75AFF98F8004051
:10017000814614B1D8F80840241A002C06DC204C23
:1001800014F8010F38B1FFF753FFF9E72879FFF7AB
:100190004FFF013CF1E72B785BB9AB68A3EB090992
:1001A000B9F1000F05DD2879FFF742FF09F1FF39AA
:1001B000F6E70023AB60FFF743FF10EB060A41EBC5
:1001C000070BFFF73DFF594508BF5045F9D3CAE774
:1001D00001A24A04000000000C1800200020024088
:1001E00000100240FEFF03000410024010E000E097
:1001F0000D180020000001400008014050020008D6
:100200004F02000810180020002108B50B4A0C4BC3
:1002100093420AD100220B490B4B0C485B1A9B08F6
:100220009A4205D1FFF730FFFEE743F8041BEFE7E2
:1002300050F8224041F822400132F1E71018002026
:10024000001800201018002020180020600200086C
:1002500048656C6C6F20776F726C64210A00000037
:100260000100000020410000000000000A00000022
:0400000508000209E4
:00000001FF
